{
  "address": "0x7C775702e27ee32D52a0c95a7E1a9031d7F6fddB",
  "abi": [
    {
      "inputs": [
        {
          "internalType": "address",
          "name": "_employee",
          "type": "address"
        },
        {
          "internalType": "uint256",
          "name": "_reward",
          "type": "uint256"
        },
        {
          "internalType": "uint256",
          "name": "_deadline",
          "type": "uint256"
        },
        {
          "internalType": "string",
          "name": "_taskDescription",
          "type": "string"
        }
      ],
      "stateMutability": "payable",
      "type": "constructor"
    },
    {
      "inputs": [
        {
          "internalType": "uint256",
          "name": "_reward",
          "type": "uint256"
        }
      ],
      "name": "activateTask",
      "outputs": [],
      "stateMutability": "payable",
      "type": "function"
    },
    {
      "inputs": [],
      "name": "cancelTask",
      "outputs": [],
      "stateMutability": "nonpayable",
      "type": "function"
    },
    {
      "inputs": [],
      "name": "cancelled",
      "outputs": [
        {
          "internalType": "bool",
          "name": "",
          "type": "bool"
        }
      ],
      "stateMutability": "view",
      "type": "function"
    },
    {
      "inputs": [],
      "name": "completeTask",
      "outputs": [],
      "stateMutability": "nonpayable",
      "type": "function"
    },
    {
      "inputs": [],
      "name": "completed",
      "outputs": [
        {
          "internalType": "bool",
          "name": "",
          "type": "bool"
        }
      ],
      "stateMutability": "view",
      "type": "function"
    },
    {
      "inputs": [],
      "name": "deadline",
      "outputs": [
        {
          "internalType": "uint256",
          "name": "",
          "type": "uint256"
        }
      ],
      "stateMutability": "view",
      "type": "function"
    },
    {
      "inputs": [],
      "name": "employee",
      "outputs": [
        {
          "internalType": "address",
          "name": "",
          "type": "address"
        }
      ],
      "stateMutability": "view",
      "type": "function"
    },
    {
      "inputs": [],
      "name": "employer",
      "outputs": [
        {
          "internalType": "address",
          "name": "",
          "type": "address"
        }
      ],
      "stateMutability": "view",
      "type": "function"
    },
    {
      "inputs": [],
      "name": "reward",
      "outputs": [
        {
          "internalType": "uint256",
          "name": "",
          "type": "uint256"
        }
      ],
      "stateMutability": "view",
      "type": "function"
    },
    {
      "inputs": [],
      "name": "taskDescription",
      "outputs": [
        {
          "internalType": "string",
          "name": "",
          "type": "string"
        }
      ],
      "stateMutability": "view",
      "type": "function"
    }
  ],
  "transactionHash": "0x89c7eb160cb5b33bc0dade71733e4cd600e58d8a458ddb1507ca5c49c65cf8ea",
  "args": [
    "0x1CBd3b2770909D4e10f157cABC84C7264073C9Ec",
    "5000000000000000000",
    1679117234,
    "Sample task description"
  ],
  "numDeployments": 7,
  "solcInputHash": "b4a1d3393f0ed532232640a8cdcf3061",
  "bytecode": "0x608060405260405162000fc838038062000fc88339818101604052810190620000299190620003fe565b336000806101000a81548173ffffffffffffffffffffffffffffffffffffffff021916908373ffffffffffffffffffffffffffffffffffffffff16021790555083600160006101000a81548173ffffffffffffffffffffffffffffffffffffffff021916908373ffffffffffffffffffffffffffffffffffffffff16021790555082600281905550816003819055508060049080519060200190620000d092919062000111565b506000600560006101000a81548160ff0219169083151502179055506000600560016101000a81548160ff02191690831515021790555050505050620004f4565b8280546200011f90620004be565b90600052602060002090601f0160209004810192826200014357600085556200018f565b82601f106200015e57805160ff19168380011785556200018f565b828001600101855582156200018f579182015b828111156200018e57825182559160200191906001019062000171565b5b5090506200019e9190620001a2565b5090565b5b80821115620001bd576000816000905550600101620001a3565b5090565b6000604051905090565b600080fd5b600080fd5b600073ffffffffffffffffffffffffffffffffffffffff82169050919050565b60006200020282620001d5565b9050919050565b6200021481620001f5565b81146200022057600080fd5b50565b600081519050620002348162000209565b92915050565b6000819050919050565b6200024f816200023a565b81146200025b57600080fd5b50565b6000815190506200026f8162000244565b92915050565b600080fd5b600080fd5b6000601f19601f8301169050919050565b7f4e487b7100000000000000000000000000000000000000000000000000000000600052604160045260246000fd5b620002ca826200027f565b810181811067ffffffffffffffff82111715620002ec57620002eb62000290565b5b80604052505050565b600062000301620001c1565b90506200030f8282620002bf565b919050565b600067ffffffffffffffff82111562000332576200033162000290565b5b6200033d826200027f565b9050602081019050919050565b60005b838110156200036a5780820151818401526020810190506200034d565b838111156200037a576000848401525b50505050565b600062000397620003918462000314565b620002f5565b905082815260208101848484011115620003b657620003b56200027a565b5b620003c38482856200034a565b509392505050565b600082601f830112620003e357620003e262000275565b5b8151620003f584826020860162000380565b91505092915050565b600080600080608085870312156200041b576200041a620001cb565b5b60006200042b8782880162000223565b94505060206200043e878288016200025e565b935050604062000451878288016200025e565b925050606085015167ffffffffffffffff811115620004755762000474620001d0565b5b6200048387828801620003cb565b91505092959194509250565b7f4e487b7100000000000000000000000000000000000000000000000000000000600052602260045260246000fd5b60006002820490506001821680620004d757607f821691505b60208210811415620004ee57620004ed6200048f565b5b50919050565b610ac480620005046000396000f3fe6080604052600436106100915760003560e01c80639d9a7fe9116100595780639d9a7fe91461014a578063a0a1a7d714610175578063ae200e79146101a0578063f7d9ae73146101cb578063fbc03a1e146101e257610091565b806302cb134e14610096578063228cb733146100b257806329dcb0cf146100dd57806343bb8db5146101085780639a82a09a1461011f575b600080fd5b6100b060048036038101906100ab9190610621565b61020d565b005b3480156100be57600080fd5b506100c7610259565b6040516100d4919061065d565b60405180910390f35b3480156100e957600080fd5b506100f261025f565b6040516100ff919061065d565b60405180910390f35b34801561011457600080fd5b5061011d610265565b005b34801561012b57600080fd5b50610134610382565b6040516101419190610693565b60405180910390f35b34801561015657600080fd5b5061015f610395565b60405161016c9190610693565b60405180910390f35b34801561018157600080fd5b5061018a6103a8565b60405161019791906106ef565b60405180910390f35b3480156101ac57600080fd5b506101b56103ce565b6040516101c291906106ef565b60405180910390f35b3480156101d757600080fd5b506101e06103f2565b005b3480156101ee57600080fd5b506101f7610558565b60405161020491906107a3565b60405180910390f35b80600281905550803414610256576040517f08c379a000000000000000000000000000000000000000000000000000000000815260040161024d90610837565b60405180910390fd5b50565b60025481565b60035481565b6003544211156102aa576040517f08c379a00000000000000000000000000000000000000000000000000000000081526004016102a1906108a3565b60405180910390fd5b600560019054906101000a900460ff16156102fa576040517f08c379a00000000000000000000000000000000000000000000000000000000081526004016102f19061090f565b60405180910390fd5b6001600560006101000a81548160ff021916908315150217905550600160009054906101000a900473ffffffffffffffffffffffffffffffffffffffff1673ffffffffffffffffffffffffffffffffffffffff166108fc6002549081150290604051600060405180830381858888f1935050505015801561037f573d6000803e3d6000fd5b50565b600560019054906101000a900460ff1681565b600560009054906101000a900460ff1681565b600160009054906101000a900473ffffffffffffffffffffffffffffffffffffffff1681565b60008054906101000a900473ffffffffffffffffffffffffffffffffffffffff1681565b600160009054906101000a900473ffffffffffffffffffffffffffffffffffffffff1673ffffffffffffffffffffffffffffffffffffffff163373ffffffffffffffffffffffffffffffffffffffff1614610482576040517f08c379a0000000000000000000000000000000000000000000000000000000008152600401610479906109a1565b60405180910390fd5b600560009054906101000a900460ff16156104d2576040517f08c379a00000000000000000000000000000000000000000000000000000000081526004016104c990610a0d565b60405180910390fd5b6001600560016101000a81548160ff02191690831515021790555060008054906101000a900473ffffffffffffffffffffffffffffffffffffffff1673ffffffffffffffffffffffffffffffffffffffff166108fc6002549081150290604051600060405180830381858888f19350505050158015610555573d6000803e3d6000fd5b50565b6004805461056590610a5c565b80601f016020809104026020016040519081016040528092919081815260200182805461059190610a5c565b80156105de5780601f106105b3576101008083540402835291602001916105de565b820191906000526020600020905b8154815290600101906020018083116105c157829003601f168201915b505050505081565b600080fd5b6000819050919050565b6105fe816105eb565b811461060957600080fd5b50565b60008135905061061b816105f5565b92915050565b600060208284031215610637576106366105e6565b5b60006106458482850161060c565b91505092915050565b610657816105eb565b82525050565b6000602082019050610672600083018461064e565b92915050565b60008115159050919050565b61068d81610678565b82525050565b60006020820190506106a86000830184610684565b92915050565b600073ffffffffffffffffffffffffffffffffffffffff82169050919050565b60006106d9826106ae565b9050919050565b6106e9816106ce565b82525050565b600060208201905061070460008301846106e0565b92915050565b600081519050919050565b600082825260208201905092915050565b60005b83811015610744578082015181840152602081019050610729565b83811115610753576000848401525b50505050565b6000601f19601f8301169050919050565b60006107758261070a565b61077f8185610715565b935061078f818560208601610726565b61079881610759565b840191505092915050565b600060208201905081810360008301526107bd818461076a565b905092915050565b7f416d6f756e742073656e74206d75737420626520657175616c20746f2074686560008201527f2072657761726400000000000000000000000000000000000000000000000000602082015250565b6000610821602783610715565b915061082c826107c5565b604082019050919050565b6000602082019050818103600083015261085081610814565b9050919050565b7f446561646c696e65206861732070617373656400000000000000000000000000600082015250565b600061088d601383610715565b915061089882610857565b602082019050919050565b600060208201905081810360008301526108bc81610880565b9050919050565b7f5461736b20686173206265656e2063616e63656c6c6564000000000000000000600082015250565b60006108f9601783610715565b9150610904826108c3565b602082019050919050565b60006020820190508181036000830152610928816108ec565b9050919050565b7f4f6e6c792074686520656d706c6f7965652063616e2063616e63656c2074686560008201527f207461736b000000000000000000000000000000000000000000000000000000602082015250565b600061098b602583610715565b91506109968261092f565b604082019050919050565b600060208201905081810360008301526109ba8161097e565b9050919050565b7f5461736b2068617320616c7265616479206265656e20636f6d706c6574656400600082015250565b60006109f7601f83610715565b9150610a02826109c1565b602082019050919050565b60006020820190508181036000830152610a26816109ea565b9050919050565b7f4e487b7100000000000000000000000000000000000000000000000000000000600052602260045260246000fd5b60006002820490506001821680610a7457607f821691505b60208210811415610a8857610a87610a2d565b5b5091905056fea2646970667358221220d8ad13b1c37be0fab8c2cc6a1c73d2007c16690a5fac11d5bf8e2afb16514a4b64736f6c63430008080033",
  "devdoc": {
    "kind": "dev",
    "methods": {},
    "version": 1
  },
  "userdoc": {
    "kind": "user",
    "methods": {},
    "version": 1
  },
  "storageLayout": {
    "storage": [
      {
        "astId": 3,
        "contract": "contracts/Task.sol:TaskContract",
        "label": "employer",
        "offset": 0,
        "slot": "0",
        "type": "t_address"
      },
      {
        "astId": 5,
        "contract": "contracts/Task.sol:TaskContract",
        "label": "employee",
        "offset": 0,
        "slot": "1",
        "type": "t_address"
      },
      {
        "astId": 7,
        "contract": "contracts/Task.sol:TaskContract",
        "label": "reward",
        "offset": 0,
        "slot": "2",
        "type": "t_uint256"
      },
      {
        "astId": 9,
        "contract": "contracts/Task.sol:TaskContract",
        "label": "deadline",
        "offset": 0,
        "slot": "3",
        "type": "t_uint256"
      },
      {
        "astId": 11,
        "contract": "contracts/Task.sol:TaskContract",
        "label": "taskDescription",
        "offset": 0,
        "slot": "4",
        "type": "t_string_storage"
      },
      {
        "astId": 13,
        "contract": "contracts/Task.sol:TaskContract",
        "label": "completed",
        "offset": 0,
        "slot": "5",
        "type": "t_bool"
      },
      {
        "astId": 15,
        "contract": "contracts/Task.sol:TaskContract",
        "label": "cancelled",
        "offset": 1,
        "slot": "5",
        "type": "t_bool"
      }
    ],
    "types": {
      "t_address": {
        "encoding": "inplace",
        "label": "address",
        "numberOfBytes": "20"
      },
      "t_bool": {
        "encoding": "inplace",
        "label": "bool",
        "numberOfBytes": "1"
      },
      "t_string_storage": {
        "encoding": "bytes",
        "label": "string",
        "numberOfBytes": "32"
      },
      "t_uint256": {
        "encoding": "inplace",
        "label": "uint256",
        "numberOfBytes": "32"
      }
    }
  }
}