{
  "address": "0x274ddA4f07Bd48Ca7C6e4e3B4ED9636577D58f26",
  "abi": [
    {
      "inputs": [
        {
          "internalType": "address",
          "name": "_employee",
          "type": "address"
        },
        {
          "internalType": "uint256",
          "name": "_reward",
          "type": "uint256"
        },
        {
          "internalType": "uint256",
          "name": "_deadline",
          "type": "uint256"
        },
        {
          "internalType": "address",
          "name": "_employer",
          "type": "address"
        }
      ],
      "stateMutability": "payable",
      "type": "constructor"
    },
    {
      "inputs": [
        {
          "internalType": "uint256",
          "name": "_reward",
          "type": "uint256"
        }
      ],
      "name": "activateTask",
      "outputs": [],
      "stateMutability": "payable",
      "type": "function"
    },
    {
      "inputs": [],
      "name": "activated",
      "outputs": [
        {
          "internalType": "bool",
          "name": "",
          "type": "bool"
        }
      ],
      "stateMutability": "view",
      "type": "function"
    },
    {
      "inputs": [],
      "name": "cancelTask",
      "outputs": [],
      "stateMutability": "nonpayable",
      "type": "function"
    },
    {
      "inputs": [],
      "name": "cancelled",
      "outputs": [
        {
          "internalType": "bool",
          "name": "",
          "type": "bool"
        }
      ],
      "stateMutability": "view",
      "type": "function"
    },
    {
      "inputs": [],
      "name": "completeTask",
      "outputs": [],
      "stateMutability": "nonpayable",
      "type": "function"
    },
    {
      "inputs": [],
      "name": "completed",
      "outputs": [
        {
          "internalType": "bool",
          "name": "",
          "type": "bool"
        }
      ],
      "stateMutability": "view",
      "type": "function"
    },
    {
      "inputs": [],
      "name": "deadline",
      "outputs": [
        {
          "internalType": "uint256",
          "name": "",
          "type": "uint256"
        }
      ],
      "stateMutability": "view",
      "type": "function"
    },
    {
      "inputs": [],
      "name": "employee",
      "outputs": [
        {
          "internalType": "address",
          "name": "",
          "type": "address"
        }
      ],
      "stateMutability": "view",
      "type": "function"
    },
    {
      "inputs": [],
      "name": "employer",
      "outputs": [
        {
          "internalType": "address",
          "name": "",
          "type": "address"
        }
      ],
      "stateMutability": "view",
      "type": "function"
    },
    {
      "inputs": [],
      "name": "isActivated",
      "outputs": [
        {
          "internalType": "bool",
          "name": "",
          "type": "bool"
        }
      ],
      "stateMutability": "view",
      "type": "function"
    },
    {
      "inputs": [],
      "name": "isCancelled",
      "outputs": [
        {
          "internalType": "bool",
          "name": "",
          "type": "bool"
        }
      ],
      "stateMutability": "view",
      "type": "function"
    },
    {
      "inputs": [],
      "name": "isCompleted",
      "outputs": [
        {
          "internalType": "bool",
          "name": "",
          "type": "bool"
        }
      ],
      "stateMutability": "view",
      "type": "function"
    },
    {
      "inputs": [],
      "name": "reward",
      "outputs": [
        {
          "internalType": "uint256",
          "name": "",
          "type": "uint256"
        }
      ],
      "stateMutability": "view",
      "type": "function"
    },
    {
      "inputs": [],
      "name": "taskDescription",
      "outputs": [
        {
          "internalType": "string",
          "name": "",
          "type": "string"
        }
      ],
      "stateMutability": "view",
      "type": "function"
    },
    {
      "inputs": [],
      "name": "viewReward",
      "outputs": [
        {
          "internalType": "uint256",
          "name": "",
          "type": "uint256"
        }
      ],
      "stateMutability": "view",
      "type": "function"
    }
  ],
  "transactionHash": "0xa1c89cd3ad4c7c33c4755b2be01682620b8b4a4d62099132a8f0e4572e12d99b",
  "args": [
    "0x666aBFE4f39972E794E325CC84Ea241F8bC3C283",
    "50000000000000000",
    1680849884,
    "0x7d50734861D516832C7ffD9C90d0FB8476B4A52E"
  ],
  "numDeployments": 10,
  "solcInputHash": "435ca6571a98a76c33b4aef656b74ce1",
  "bytecode": "0x608060405260405162001065380380620010658339818101604052810190620000299190620001b8565b806000806101000a81548173ffffffffffffffffffffffffffffffffffffffff021916908373ffffffffffffffffffffffffffffffffffffffff16021790555083600160006101000a81548173ffffffffffffffffffffffffffffffffffffffff021916908373ffffffffffffffffffffffffffffffffffffffff16021790555082600281905550816003819055506000600560006101000a81548160ff0219169083151502179055506000600560016101000a81548160ff0219169083151502179055506000600560026101000a81548160ff021916908315150217905550505050506200022a565b600080fd5b600073ffffffffffffffffffffffffffffffffffffffff82169050919050565b6000620001458262000118565b9050919050565b620001578162000138565b81146200016357600080fd5b50565b60008151905062000177816200014c565b92915050565b6000819050919050565b62000192816200017d565b81146200019e57600080fd5b50565b600081519050620001b28162000187565b92915050565b60008060008060808587031215620001d557620001d462000113565b5b6000620001e58782880162000166565b9450506020620001f887828801620001a1565b93505060406200020b87828801620001a1565b92505060606200021e8782880162000166565b91505092959194509250565b610e2b806200023a6000396000f3fe6080604052600436106100e85760003560e01c806395ee12211161008a578063ae200e7911610059578063ae200e79146102a3578063f7d9ae73146102ce578063fa391c64146102e5578063fbc03a1e14610310576100e8565b806395ee1221146101f75780639a82a09a146102225780639d9a7fe91461024d578063a0a1a7d714610278576100e8565b806329dcb0cf116100c657806329dcb0cf1461015f57806334f2015d1461018a57806343bb8db5146101b55780634a8c1fb4146101cc576100e8565b806302cb134e146100ed578063186601ca14610109578063228cb73314610134575b600080fd5b610107600480360381019061010291906108b0565b61033b565b005b34801561011557600080fd5b5061011e610486565b60405161012b91906108f8565b60405180910390f35b34801561014057600080fd5b50610149610499565b6040516101569190610922565b60405180910390f35b34801561016b57600080fd5b5061017461049f565b6040516101819190610922565b60405180910390f35b34801561019657600080fd5b5061019f6104a5565b6040516101ac9190610922565b60405180910390f35b3480156101c157600080fd5b506101ca6104af565b005b3480156101d857600080fd5b506101e16105cc565b6040516101ee91906108f8565b60405180910390f35b34801561020357600080fd5b5061020c6105e3565b60405161021991906108f8565b60405180910390f35b34801561022e57600080fd5b506102376105fa565b60405161024491906108f8565b60405180910390f35b34801561025957600080fd5b5061026261060d565b60405161026f91906108f8565b60405180910390f35b34801561028457600080fd5b5061028d610620565b60405161029a919061097e565b60405180910390f35b3480156102af57600080fd5b506102b8610646565b6040516102c5919061097e565b60405180910390f35b3480156102da57600080fd5b506102e361066a565b005b3480156102f157600080fd5b506102fa6107d0565b60405161030791906108f8565b60405180910390f35b34801561031c57600080fd5b506103256107e7565b6040516103329190610a32565b60405180910390f35b80341461037d576040517f08c379a000000000000000000000000000000000000000000000000000000000815260040161037490610ac6565b60405180910390fd5b60008054906101000a900473ffffffffffffffffffffffffffffffffffffffff1673ffffffffffffffffffffffffffffffffffffffff163373ffffffffffffffffffffffffffffffffffffffff161461040b576040517f08c379a000000000000000000000000000000000000000000000000000000000815260040161040290610b32565b60405180910390fd5b60001515600560029054906101000a900460ff16151514610461576040517f08c379a000000000000000000000000000000000000000000000000000000000815260040161045890610b9e565b60405180910390fd5b806002819055506001600560026101000a81548160ff02191690831515021790555050565b600560029054906101000a900460ff1681565b60025481565b60035481565b6000600254905090565b6003544211156104f4576040517f08c379a00000000000000000000000000000000000000000000000000000000081526004016104eb90610c0a565b60405180910390fd5b600560019054906101000a900460ff1615610544576040517f08c379a000000000000000000000000000000000000000000000000000000000815260040161053b90610c76565b60405180910390fd5b6001600560006101000a81548160ff021916908315150217905550600160009054906101000a900473ffffffffffffffffffffffffffffffffffffffff1673ffffffffffffffffffffffffffffffffffffffff166108fc6002549081150290604051600060405180830381858888f193505050501580156105c9573d6000803e3d6000fd5b50565b6000600560029054906101000a900460ff16905090565b6000600560019054906101000a900460ff16905090565b600560019054906101000a900460ff1681565b600560009054906101000a900460ff1681565b600160009054906101000a900473ffffffffffffffffffffffffffffffffffffffff1681565b60008054906101000a900473ffffffffffffffffffffffffffffffffffffffff1681565b600160009054906101000a900473ffffffffffffffffffffffffffffffffffffffff1673ffffffffffffffffffffffffffffffffffffffff163373ffffffffffffffffffffffffffffffffffffffff16146106fa576040517f08c379a00000000000000000000000000000000000000000000000000000000081526004016106f190610d08565b60405180910390fd5b600560009054906101000a900460ff161561074a576040517f08c379a000000000000000000000000000000000000000000000000000000000815260040161074190610d74565b60405180910390fd5b6001600560016101000a81548160ff02191690831515021790555060008054906101000a900473ffffffffffffffffffffffffffffffffffffffff1673ffffffffffffffffffffffffffffffffffffffff166108fc6002549081150290604051600060405180830381858888f193505050501580156107cd573d6000803e3d6000fd5b50565b6000600560009054906101000a900460ff16905090565b600480546107f490610dc3565b80601f016020809104026020016040519081016040528092919081815260200182805461082090610dc3565b801561086d5780601f106108425761010080835404028352916020019161086d565b820191906000526020600020905b81548152906001019060200180831161085057829003601f168201915b505050505081565b600080fd5b6000819050919050565b61088d8161087a565b811461089857600080fd5b50565b6000813590506108aa81610884565b92915050565b6000602082840312156108c6576108c5610875565b5b60006108d48482850161089b565b91505092915050565b60008115159050919050565b6108f2816108dd565b82525050565b600060208201905061090d60008301846108e9565b92915050565b61091c8161087a565b82525050565b60006020820190506109376000830184610913565b92915050565b600073ffffffffffffffffffffffffffffffffffffffff82169050919050565b60006109688261093d565b9050919050565b6109788161095d565b82525050565b6000602082019050610993600083018461096f565b92915050565b600081519050919050565b600082825260208201905092915050565b60005b838110156109d35780820151818401526020810190506109b8565b838111156109e2576000848401525b50505050565b6000601f19601f8301169050919050565b6000610a0482610999565b610a0e81856109a4565b9350610a1e8185602086016109b5565b610a27816109e8565b840191505092915050565b60006020820190508181036000830152610a4c81846109f9565b905092915050565b7f416d6f756e742073656e74206d75737420626520657175616c20746f2074686560008201527f2072657761726400000000000000000000000000000000000000000000000000602082015250565b6000610ab06027836109a4565b9150610abb82610a54565b604082019050919050565b60006020820190508181036000830152610adf81610aa3565b9050919050565b7f4f6e6c792068697265722063616e20616374697661746520746865207461736b600082015250565b6000610b1c6020836109a4565b9150610b2782610ae6565b602082019050919050565b60006020820190508181036000830152610b4b81610b0f565b9050919050565b7f5461736b20616c72656164792061637469766174656400000000000000000000600082015250565b6000610b886016836109a4565b9150610b9382610b52565b602082019050919050565b60006020820190508181036000830152610bb781610b7b565b9050919050565b7f446561646c696e65206861732070617373656400000000000000000000000000600082015250565b6000610bf46013836109a4565b9150610bff82610bbe565b602082019050919050565b60006020820190508181036000830152610c2381610be7565b9050919050565b7f5461736b20686173206265656e2063616e63656c6c6564000000000000000000600082015250565b6000610c606017836109a4565b9150610c6b82610c2a565b602082019050919050565b60006020820190508181036000830152610c8f81610c53565b9050919050565b7f4f6e6c792074686520656d706c6f7965652063616e2063616e63656c2074686560008201527f207461736b000000000000000000000000000000000000000000000000000000602082015250565b6000610cf26025836109a4565b9150610cfd82610c96565b604082019050919050565b60006020820190508181036000830152610d2181610ce5565b9050919050565b7f5461736b2068617320616c7265616479206265656e20636f6d706c6574656400600082015250565b6000610d5e601f836109a4565b9150610d6982610d28565b602082019050919050565b60006020820190508181036000830152610d8d81610d51565b9050919050565b7f4e487b7100000000000000000000000000000000000000000000000000000000600052602260045260246000fd5b60006002820490506001821680610ddb57607f821691505b60208210811415610def57610dee610d94565b5b5091905056fea2646970667358221220c0a6b005b1a5a01166e33371cd44d1ffae13c813fece3148fd8dfadb53b10b3c64736f6c63430008080033",
  "devdoc": {
    "kind": "dev",
    "methods": {},
    "version": 1
  },
  "userdoc": {
    "kind": "user",
    "methods": {},
    "version": 1
  },
  "storageLayout": {
    "storage": [
      {
        "astId": 3,
        "contract": "contracts/Task.sol:TaskContract",
        "label": "employer",
        "offset": 0,
        "slot": "0",
        "type": "t_address"
      },
      {
        "astId": 5,
        "contract": "contracts/Task.sol:TaskContract",
        "label": "employee",
        "offset": 0,
        "slot": "1",
        "type": "t_address"
      },
      {
        "astId": 7,
        "contract": "contracts/Task.sol:TaskContract",
        "label": "reward",
        "offset": 0,
        "slot": "2",
        "type": "t_uint256"
      },
      {
        "astId": 9,
        "contract": "contracts/Task.sol:TaskContract",
        "label": "deadline",
        "offset": 0,
        "slot": "3",
        "type": "t_uint256"
      },
      {
        "astId": 11,
        "contract": "contracts/Task.sol:TaskContract",
        "label": "taskDescription",
        "offset": 0,
        "slot": "4",
        "type": "t_string_storage"
      },
      {
        "astId": 13,
        "contract": "contracts/Task.sol:TaskContract",
        "label": "completed",
        "offset": 0,
        "slot": "5",
        "type": "t_bool"
      },
      {
        "astId": 15,
        "contract": "contracts/Task.sol:TaskContract",
        "label": "cancelled",
        "offset": 1,
        "slot": "5",
        "type": "t_bool"
      },
      {
        "astId": 17,
        "contract": "contracts/Task.sol:TaskContract",
        "label": "activated",
        "offset": 2,
        "slot": "5",
        "type": "t_bool"
      }
    ],
    "types": {
      "t_address": {
        "encoding": "inplace",
        "label": "address",
        "numberOfBytes": "20"
      },
      "t_bool": {
        "encoding": "inplace",
        "label": "bool",
        "numberOfBytes": "1"
      },
      "t_string_storage": {
        "encoding": "bytes",
        "label": "string",
        "numberOfBytes": "32"
      },
      "t_uint256": {
        "encoding": "inplace",
        "label": "uint256",
        "numberOfBytes": "32"
      }
    }
  }
}